{
  "contractName": "Contract",
  "abi": [
    {
      "inputs": [
        {
          "internalType": "string",
          "name": "name_",
          "type": "string"
        },
        {
          "internalType": "string",
          "name": "symbol_",
          "type": "string"
        }
      ],
      "stateMutability": "nonpayable",
      "type": "constructor"
    },
    {
      "anonymous": false,
      "inputs": [
        {
          "indexed": true,
          "internalType": "address",
          "name": "owner",
          "type": "address"
        },
        {
          "indexed": true,
          "internalType": "address",
          "name": "approved",
          "type": "address"
        },
        {
          "indexed": true,
          "internalType": "uint256",
          "name": "tokenId",
          "type": "uint256"
        }
      ],
      "name": "Approval",
      "type": "event"
    },
    {
      "anonymous": false,
      "inputs": [
        {
          "indexed": true,
          "internalType": "address",
          "name": "owner",
          "type": "address"
        },
        {
          "indexed": true,
          "internalType": "address",
          "name": "operator",
          "type": "address"
        },
        {
          "indexed": false,
          "internalType": "bool",
          "name": "approved",
          "type": "bool"
        }
      ],
      "name": "ApprovalForAll",
      "type": "event"
    },
    {
      "anonymous": false,
      "inputs": [
        {
          "indexed": false,
          "internalType": "uint256",
          "name": "id",
          "type": "uint256"
        }
      ],
      "name": "NewNameMinted",
      "type": "event"
    },
    {
      "anonymous": false,
      "inputs": [
        {
          "indexed": true,
          "internalType": "address",
          "name": "previousOwner",
          "type": "address"
        },
        {
          "indexed": true,
          "internalType": "address",
          "name": "newOwner",
          "type": "address"
        }
      ],
      "name": "OwnershipTransferred",
      "type": "event"
    },
    {
      "anonymous": false,
      "inputs": [
        {
          "indexed": true,
          "internalType": "address",
          "name": "from",
          "type": "address"
        },
        {
          "indexed": true,
          "internalType": "address",
          "name": "to",
          "type": "address"
        },
        {
          "indexed": true,
          "internalType": "uint256",
          "name": "tokenId",
          "type": "uint256"
        }
      ],
      "name": "Transfer",
      "type": "event"
    },
    {
      "anonymous": false,
      "inputs": [
        {
          "indexed": false,
          "internalType": "address",
          "name": "_address",
          "type": "address"
        },
        {
          "indexed": false,
          "internalType": "uint256",
          "name": "amount",
          "type": "uint256"
        }
      ],
      "name": "Withdrawn",
      "type": "event"
    },
    {
      "inputs": [
        {
          "internalType": "address",
          "name": "to",
          "type": "address"
        },
        {
          "internalType": "uint256",
          "name": "tokenId",
          "type": "uint256"
        }
      ],
      "name": "approve",
      "outputs": [],
      "stateMutability": "nonpayable",
      "type": "function"
    },
    {
      "inputs": [
        {
          "internalType": "address",
          "name": "owner",
          "type": "address"
        }
      ],
      "name": "balanceOf",
      "outputs": [
        {
          "internalType": "uint256",
          "name": "",
          "type": "uint256"
        }
      ],
      "stateMutability": "view",
      "type": "function"
    },
    {
      "inputs": [
        {
          "internalType": "uint256",
          "name": "tokenId",
          "type": "uint256"
        }
      ],
      "name": "getApproved",
      "outputs": [
        {
          "internalType": "address",
          "name": "",
          "type": "address"
        }
      ],
      "stateMutability": "view",
      "type": "function"
    },
    {
      "inputs": [
        {
          "internalType": "address",
          "name": "owner",
          "type": "address"
        },
        {
          "internalType": "address",
          "name": "operator",
          "type": "address"
        }
      ],
      "name": "isApprovedForAll",
      "outputs": [
        {
          "internalType": "bool",
          "name": "",
          "type": "bool"
        }
      ],
      "stateMutability": "view",
      "type": "function"
    },
    {
      "inputs": [],
      "name": "name",
      "outputs": [
        {
          "internalType": "string",
          "name": "",
          "type": "string"
        }
      ],
      "stateMutability": "view",
      "type": "function"
    },
    {
      "inputs": [],
      "name": "owner",
      "outputs": [
        {
          "internalType": "address",
          "name": "",
          "type": "address"
        }
      ],
      "stateMutability": "view",
      "type": "function"
    },
    {
      "inputs": [
        {
          "internalType": "uint256",
          "name": "tokenId",
          "type": "uint256"
        }
      ],
      "name": "ownerOf",
      "outputs": [
        {
          "internalType": "address",
          "name": "",
          "type": "address"
        }
      ],
      "stateMutability": "view",
      "type": "function"
    },
    {
      "inputs": [],
      "name": "renounceOwnership",
      "outputs": [],
      "stateMutability": "nonpayable",
      "type": "function"
    },
    {
      "inputs": [
        {
          "internalType": "address",
          "name": "from",
          "type": "address"
        },
        {
          "internalType": "address",
          "name": "to",
          "type": "address"
        },
        {
          "internalType": "uint256",
          "name": "tokenId",
          "type": "uint256"
        }
      ],
      "name": "safeTransferFrom",
      "outputs": [],
      "stateMutability": "nonpayable",
      "type": "function"
    },
    {
      "inputs": [
        {
          "internalType": "address",
          "name": "from",
          "type": "address"
        },
        {
          "internalType": "address",
          "name": "to",
          "type": "address"
        },
        {
          "internalType": "uint256",
          "name": "tokenId",
          "type": "uint256"
        },
        {
          "internalType": "bytes",
          "name": "_data",
          "type": "bytes"
        }
      ],
      "name": "safeTransferFrom",
      "outputs": [],
      "stateMutability": "nonpayable",
      "type": "function"
    },
    {
      "inputs": [
        {
          "internalType": "address",
          "name": "operator",
          "type": "address"
        },
        {
          "internalType": "bool",
          "name": "approved",
          "type": "bool"
        }
      ],
      "name": "setApprovalForAll",
      "outputs": [],
      "stateMutability": "nonpayable",
      "type": "function"
    },
    {
      "inputs": [],
      "name": "symbol",
      "outputs": [
        {
          "internalType": "string",
          "name": "",
          "type": "string"
        }
      ],
      "stateMutability": "view",
      "type": "function"
    },
    {
      "inputs": [
        {
          "internalType": "address",
          "name": "from",
          "type": "address"
        },
        {
          "internalType": "address",
          "name": "to",
          "type": "address"
        },
        {
          "internalType": "uint256",
          "name": "tokenId",
          "type": "uint256"
        }
      ],
      "name": "transferFrom",
      "outputs": [],
      "stateMutability": "nonpayable",
      "type": "function"
    },
    {
      "inputs": [
        {
          "internalType": "address",
          "name": "newOwner",
          "type": "address"
        }
      ],
      "name": "transferOwnership",
      "outputs": [],
      "stateMutability": "nonpayable",
      "type": "function"
    },
    {
      "inputs": [
        {
          "internalType": "bytes4",
          "name": "interfaceId",
          "type": "bytes4"
        }
      ],
      "name": "supportsInterface",
      "outputs": [
        {
          "internalType": "bool",
          "name": "",
          "type": "bool"
        }
      ],
      "stateMutability": "view",
      "type": "function"
    },
    {
      "inputs": [
        {
          "internalType": "address payable",
          "name": "_address",
          "type": "address"
        }
      ],
      "name": "withdraw",
      "outputs": [],
      "stateMutability": "nonpayable",
      "type": "function"
    },
    {
      "inputs": [],
      "name": "launch",
      "outputs": [],
      "stateMutability": "nonpayable",
      "type": "function"
    },
    {
      "inputs": [
        {
          "internalType": "string",
          "name": "cid",
          "type": "string"
        }
      ],
      "name": "setBaseURIcid",
      "outputs": [],
      "stateMutability": "nonpayable",
      "type": "function"
    },
    {
      "inputs": [
        {
          "internalType": "uint256",
          "name": "tokenId",
          "type": "uint256"
        }
      ],
      "name": "tokenURI",
      "outputs": [
        {
          "internalType": "string",
          "name": "",
          "type": "string"
        }
      ],
      "stateMutability": "view",
      "type": "function"
    },
    {
      "inputs": [],
      "name": "teamMintName",
      "outputs": [],
      "stateMutability": "nonpayable",
      "type": "function"
    },
    {
      "inputs": [],
      "name": "preMintName",
      "outputs": [],
      "stateMutability": "nonpayable",
      "type": "function"
    },
    {
      "inputs": [
        {
          "internalType": "uint256",
          "name": "_tokenCount",
          "type": "uint256"
        }
      ],
      "name": "mintName",
      "outputs": [],
      "stateMutability": "payable",
      "type": "function"
    },
    {
      "inputs": [
        {
          "internalType": "uint256",
          "name": "tokenId",
          "type": "uint256"
        },
        {
          "internalType": "uint256",
          "name": "salePrice",
          "type": "uint256"
        }
      ],
      "name": "royaltyInfo",
      "outputs": [
        {
          "internalType": "address",
          "name": "receiver",
          "type": "address"
        },
        {
          "internalType": "uint256",
          "name": "royaltyAmount",
          "type": "uint256"
        }
      ],
      "stateMutability": "view",
      "type": "function"
    },
    {
      "inputs": [
        {
          "internalType": "address",
          "name": "_address",
          "type": "address"
        }
      ],
      "name": "setRoyaltyRecieverTo",
      "outputs": [],
      "stateMutability": "nonpayable",
      "type": "function"
    },
    {
      "inputs": [
        {
          "internalType": "uint16",
          "name": "_percent",
          "type": "uint16"
        }
      ],
      "name": "setRoyaltyAmountTo",
      "outputs": [],
      "stateMutability": "nonpayable",
      "type": "function"
    },
    {
      "inputs": [],
      "name": "isTokenHolder",
      "outputs": [
        {
          "internalType": "bool",
          "name": "",
          "type": "bool"
        }
      ],
      "stateMutability": "view",
      "type": "function"
    }
  ],
  "bytecode": "0x60806040526001600760176101000a81548160ff0219169083151502179055503480156200002c57600080fd5b50604051620044b7380380620044b783398181016040528101906200005291906200029e565b81816200007462000068620000b060201b60201c565b620000b860201b60201c565b81600190805190602001906200008c9291906200017c565b508060029080519060200190620000a59291906200017c565b505050505062000442565b600033905090565b60008060009054906101000a900473ffffffffffffffffffffffffffffffffffffffff169050816000806101000a81548173ffffffffffffffffffffffffffffffffffffffff021916908373ffffffffffffffffffffffffffffffffffffffff1602179055508173ffffffffffffffffffffffffffffffffffffffff168173ffffffffffffffffffffffffffffffffffffffff167f8be0079c531659141344cd1fd0a4f28419497f9722a3daafe3b4186f6b6457e060405160405180910390a35050565b8280546200018a90620003ae565b90600052602060002090601f016020900481019282620001ae5760008555620001fa565b82601f10620001c957805160ff1916838001178555620001fa565b82800160010185558215620001fa579182015b82811115620001f9578251825591602001919060010190620001dc565b5b5090506200020991906200020d565b5090565b5b80821115620002285760008160009055506001016200020e565b5090565b6000620002436200023d8462000345565b62000311565b9050828152602081018484840111156200025c57600080fd5b6200026984828562000378565b509392505050565b600082601f8301126200028357600080fd5b8151620002958482602086016200022c565b91505092915050565b60008060408385031215620002b257600080fd5b600083015167ffffffffffffffff811115620002cd57600080fd5b620002db8582860162000271565b925050602083015167ffffffffffffffff811115620002f957600080fd5b620003078582860162000271565b9150509250929050565b6000604051905081810181811067ffffffffffffffff821117156200033b576200033a62000413565b5b8060405250919050565b600067ffffffffffffffff82111562000363576200036262000413565b5b601f19601f8301169050602081019050919050565b60005b83811015620003985780820151818401526020810190506200037b565b83811115620003a8576000848401525b50505050565b60006002820490506001821680620003c757607f821691505b60208210811415620003de57620003dd620003e4565b5b50919050565b7f4e487b7100000000000000000000000000000000000000000000000000000000600052602260045260246000fd5b7f4e487b7100000000000000000000000000000000000000000000000000000000600052604160045260246000fd5b61406580620004526000396000f3fe6080604052600436106101815760003560e01c806370a08231116100d1578063a8d9949d1161008a578063bdfccb2611610064578063bdfccb2614610522578063c87b56dd1461054d578063e985e9c51461058a578063f2fde38b146105c757610181565b8063a8d9949d146104a7578063b88d4fde146104d0578063bc956b1a146104f957610181565b806370a08231146103b8578063715018a6146103f55780638da5cb5b1461040c578063931a0a841461043757806395d89b4114610453578063a22cb4651461047e57610181565b80632a55205a1161013e57806351cff8d91161011857806351cff8d91461032457806358ea82651461034d5780636352211e146103645780636bbe7fe7146103a157610181565b80632a55205a1461029457806342842e0e146102d2578063428835c9146102fb57610181565b806301339c211461018657806301ffc9a71461019d57806306fdde03146101da578063081812fc14610205578063095ea7b31461024257806323b872dd1461026b575b600080fd5b34801561019257600080fd5b5061019b6105f0565b005b3480156101a957600080fd5b506101c460048036038101906101bf91906129c5565b6106df565b6040516101d191906137ba565b60405180910390f35b3480156101e657600080fd5b506101ef610759565b6040516101fc91906137d5565b60405180910390f35b34801561021157600080fd5b5061022c60048036038101906102279190612a85565b6107eb565b6040516102399190613701565b60405180910390f35b34801561024e57600080fd5b5061026960048036038101906102649190612989565b610870565b005b34801561027757600080fd5b50610292600480360381019061028d9190612883565b610988565b005b3480156102a057600080fd5b506102bb60048036038101906102b69190612aae565b6109e8565b6040516102c9929190613791565b60405180910390f35b3480156102de57600080fd5b506102f960048036038101906102f49190612883565b610a8e565b005b34801561030757600080fd5b50610322600480360381019061031d9190612a5c565b610aae565b005b34801561033057600080fd5b5061034b6004803603810190610346919061281e565b610ba4565b005b34801561035957600080fd5b50610362610ca3565b005b34801561037057600080fd5b5061038b60048036038101906103869190612a85565b610d5a565b6040516103989190613701565b60405180910390f35b3480156103ad57600080fd5b506103b6610e0c565b005b3480156103c457600080fd5b506103df60048036038101906103da91906127f5565b610f71565b6040516103ec9190613b37565b60405180910390f35b34801561040157600080fd5b5061040a611029565b005b34801561041857600080fd5b506104216110b1565b60405161042e9190613701565b60405180910390f35b610451600480360381019061044c9190612a85565b6110da565b005b34801561045f57600080fd5b506104686112de565b60405161047591906137d5565b60405180910390f35b34801561048a57600080fd5b506104a560048036038101906104a0919061294d565b611370565b005b3480156104b357600080fd5b506104ce60048036038101906104c99190612a17565b6114f1565b005b3480156104dc57600080fd5b506104f760048036038101906104f291906128d2565b611583565b005b34801561050557600080fd5b50610520600480360381019061051b91906127f5565b6115e5565b005b34801561052e57600080fd5b50610537611715565b60405161054491906137ba565b60405180910390f35b34801561055957600080fd5b50610574600480360381019061056f9190612a85565b611727565b60405161058191906137d5565b60405180910390f35b34801561059657600080fd5b506105b160048036038101906105ac9190612847565b6117e7565b6040516105be91906137ba565b60405180910390f35b3480156105d357600080fd5b506105ee60048036038101906105e991906127f5565b61187b565b005b6105f8611973565b73ffffffffffffffffffffffffffffffffffffffff166106166110b1565b73ffffffffffffffffffffffffffffffffffffffff161461066c576040517f08c379a000000000000000000000000000000000000000000000000000000000815260040161066390613a17565b60405180910390fd5b60001515600760169054906101000a900460ff161515146106c2576040517f08c379a00000000000000000000000000000000000000000000000000000000081526004016106b990613a37565b60405180910390fd5b6001600760166101000a81548160ff021916908315150217905550565b60007f2a55205a000000000000000000000000000000000000000000000000000000007bffffffffffffffffffffffffffffffffffffffffffffffffffffffff1916827bffffffffffffffffffffffffffffffffffffffffffffffffffffffff1916148061075257506107518261197b565b5b9050919050565b60606001805461076890613e2c565b80601f016020809104026020016040519081016040528092919081815260200182805461079490613e2c565b80156107e15780601f106107b6576101008083540402835291602001916107e1565b820191906000526020600020905b8154815290600101906020018083116107c457829003601f168201915b5050505050905090565b60006107f682611a5d565b610835576040517f08c379a000000000000000000000000000000000000000000000000000000000815260040161082c906139f7565b60405180910390fd5b6005600083815260200190815260200160002060009054906101000a900473ffffffffffffffffffffffffffffffffffffffff169050919050565b600061087b82610d5a565b90508073ffffffffffffffffffffffffffffffffffffffff168373ffffffffffffffffffffffffffffffffffffffff1614156108ec576040517f08c379a00000000000000000000000000000000000000000000000000000000081526004016108e390613ab7565b60405180910390fd5b8073ffffffffffffffffffffffffffffffffffffffff1661090b611973565b73ffffffffffffffffffffffffffffffffffffffff16148061093a575061093981610934611973565b6117e7565b5b610979576040517f08c379a000000000000000000000000000000000000000000000000000000000815260040161097090613937565b60405180910390fd5b6109838383611ac9565b505050565b610999610993611973565b82611b82565b6109d8576040517f08c379a00000000000000000000000000000000000000000000000000000000081526004016109cf90613ad7565b60405180910390fd5b6109e3838383611c60565b505050565b6000806109f484611a5d565b610a33576040517f08c379a0000000000000000000000000000000000000000000000000000000008152600401610a2a90613b17565b60405180910390fd5b600760009054906101000a900473ffffffffffffffffffffffffffffffffffffffff16612710600760149054906101000a900461ffff1661ffff1685610a799190613c92565b610a839190613c61565b915091509250929050565b610aa983838360405180602001604052806000815250611583565b505050565b610ab6611973565b73ffffffffffffffffffffffffffffffffffffffff16610ad46110b1565b73ffffffffffffffffffffffffffffffffffffffff1614610b2a576040517f08c379a0000000000000000000000000000000000000000000000000000000008152600401610b2190613a17565b60405180910390fd5b60008161ffff1610158015610b455750614e208161ffff1611155b610b84576040517f08c379a0000000000000000000000000000000000000000000000000000000008152600401610b7b90613877565b60405180910390fd5b80600760146101000a81548161ffff021916908361ffff16021790555050565b610bac611973565b73ffffffffffffffffffffffffffffffffffffffff16610bca6110b1565b73ffffffffffffffffffffffffffffffffffffffff1614610c20576040517f08c379a0000000000000000000000000000000000000000000000000000000008152600401610c1790613a17565b60405180910390fd5b7f7084f5476618d8e60b11ef0d7d3f06914655adb8793e28ff7f018d4c76d505d58147604051610c5192919061371c565b60405180910390a18073ffffffffffffffffffffffffffffffffffffffff166108fc479081150290604051600060405180830381858888f19350505050158015610c9f573d6000803e3d6000fd5b5050565b610cb633610cb16009611ebc565b611eca565b7f68be1fec0d43c64647c27a1b0ab37b69bcf463b58485e6d9d62ffe454292dc2e610ce16009611ebc565b604051610cee9190613b37565b60405180910390a1610d006009611ee8565b6000600a60003373ffffffffffffffffffffffffffffffffffffffff1673ffffffffffffffffffffffffffffffffffffffff16815260200190815260200160002060006101000a81548160ff021916908315150217905550565b6000806003600084815260200190815260200160002060009054906101000a900473ffffffffffffffffffffffffffffffffffffffff169050600073ffffffffffffffffffffffffffffffffffffffff168173ffffffffffffffffffffffffffffffffffffffff161415610e03576040517f08c379a0000000000000000000000000000000000000000000000000000000008152600401610dfa90613977565b60405180910390fd5b80915050919050565b610e14611973565b73ffffffffffffffffffffffffffffffffffffffff16610e326110b1565b73ffffffffffffffffffffffffffffffffffffffff1614610e88576040517f08c379a0000000000000000000000000000000000000000000000000000000008152600401610e7f90613a17565b60405180910390fd5b600760179054906101000a900460ff16610ed7576040517f08c379a0000000000000000000000000000000000000000000000000000000008152600401610ece906138d7565b60405180910390fd5b60005b6014811015610f5357610ef633610ef16009611ebc565b611eca565b7f68be1fec0d43c64647c27a1b0ab37b69bcf463b58485e6d9d62ffe454292dc2e610f216009611ebc565b604051610f2e9190613b37565b60405180910390a1610f406009611ee8565b8080610f4b90613e5e565b915050610eda565b506000600760176101000a81548160ff021916908315150217905550565b60008073ffffffffffffffffffffffffffffffffffffffff168273ffffffffffffffffffffffffffffffffffffffff161415610fe2576040517f08c379a0000000000000000000000000000000000000000000000000000000008152600401610fd990613957565b60405180910390fd5b600460008373ffffffffffffffffffffffffffffffffffffffff1673ffffffffffffffffffffffffffffffffffffffff168152602001908152602001600020549050919050565b611031611973565b73ffffffffffffffffffffffffffffffffffffffff1661104f6110b1565b73ffffffffffffffffffffffffffffffffffffffff16146110a5576040517f08c379a000000000000000000000000000000000000000000000000000000000815260040161109c90613a17565b60405180910390fd5b6110af6000611efe565b565b60008060009054906101000a900473ffffffffffffffffffffffffffffffffffffffff16905090565b600760169054906101000a900460ff16611129576040517f08c379a000000000000000000000000000000000000000000000000000000000815260040161112090613997565b60405180910390fd5b601481111561116d576040517f08c379a0000000000000000000000000000000000000000000000000000000008152600401611164906139b7565b60405180910390fd5b60008114156111b1576040517f08c379a00000000000000000000000000000000000000000000000000000000081526004016111a890613af7565b60405180910390fd5b6126ab816111bf6009611ebc565b6111c99190613c0b565b111561120a576040517f08c379a000000000000000000000000000000000000000000000000000000000815260040161120190613a77565b60405180910390fd5b80662386f26fc1000061121d9190613c92565b34101561125f576040517f08c379a0000000000000000000000000000000000000000000000000000000008152600401611256906138f7565b60405180910390fd5b60005b818110156112da5761127d336112786009611ebc565b611eca565b7f68be1fec0d43c64647c27a1b0ab37b69bcf463b58485e6d9d62ffe454292dc2e6112a86009611ebc565b6040516112b59190613b37565b60405180910390a16112c76009611ee8565b80806112d290613e5e565b915050611262565b5050565b6060600280546112ed90613e2c565b80601f016020809104026020016040519081016040528092919081815260200182805461131990613e2c565b80156113665780601f1061133b57610100808354040283529160200191611366565b820191906000526020600020905b81548152906001019060200180831161134957829003601f168201915b5050505050905090565b611378611973565b73ffffffffffffffffffffffffffffffffffffffff168273ffffffffffffffffffffffffffffffffffffffff1614156113e6576040517f08c379a00000000000000000000000000000000000000000000000000000000081526004016113dd906138b7565b60405180910390fd5b80600660006113f3611973565b73ffffffffffffffffffffffffffffffffffffffff1673ffffffffffffffffffffffffffffffffffffffff16815260200190815260200160002060008473ffffffffffffffffffffffffffffffffffffffff1673ffffffffffffffffffffffffffffffffffffffff16815260200190815260200160002060006101000a81548160ff0219169083151502179055508173ffffffffffffffffffffffffffffffffffffffff166114a0611973565b73ffffffffffffffffffffffffffffffffffffffff167f17307eab39ab6107e8899845ad3d59bd9653f200f220920489ca2b5937696c31836040516114e591906137ba565b60405180910390a35050565b6114f9611973565b73ffffffffffffffffffffffffffffffffffffffff166115176110b1565b73ffffffffffffffffffffffffffffffffffffffff161461156d576040517f08c379a000000000000000000000000000000000000000000000000000000000815260040161156490613a17565b60405180910390fd5b81816008919061157e92919061260d565b505050565b61159461158e611973565b83611b82565b6115d3576040517f08c379a00000000000000000000000000000000000000000000000000000000081526004016115ca90613ad7565b60405180910390fd5b6115df84848484611fc2565b50505050565b6115ed611973565b73ffffffffffffffffffffffffffffffffffffffff1661160b6110b1565b73ffffffffffffffffffffffffffffffffffffffff1614611661576040517f08c379a000000000000000000000000000000000000000000000000000000000815260040161165890613a17565b60405180910390fd5b600073ffffffffffffffffffffffffffffffffffffffff168173ffffffffffffffffffffffffffffffffffffffff1614156116d1576040517f08c379a00000000000000000000000000000000000000000000000000000000081526004016116c8906137f7565b60405180910390fd5b80600760006101000a81548173ffffffffffffffffffffffffffffffffffffffff021916908373ffffffffffffffffffffffffffffffffffffffff16021790555050565b60008061172133610f71565b11905090565b606061173282611a5d565b611771576040517f08c379a000000000000000000000000000000000000000000000000000000000815260040161176890613a97565b60405180910390fd5b60006008805461178090613e2c565b9050116117b4576117908261201e565b6040516020016117a091906136df565b6040516020818303038152906040526117e0565b60086117bf8361201e565b6040516020016117d092919061369a565b6040516020818303038152906040525b9050919050565b6000600660008473ffffffffffffffffffffffffffffffffffffffff1673ffffffffffffffffffffffffffffffffffffffff16815260200190815260200160002060008373ffffffffffffffffffffffffffffffffffffffff1673ffffffffffffffffffffffffffffffffffffffff16815260200190815260200160002060009054906101000a900460ff16905092915050565b611883611973565b73ffffffffffffffffffffffffffffffffffffffff166118a16110b1565b73ffffffffffffffffffffffffffffffffffffffff16146118f7576040517f08c379a00000000000000000000000000000000000000000000000000000000081526004016118ee90613a17565b60405180910390fd5b600073ffffffffffffffffffffffffffffffffffffffff168173ffffffffffffffffffffffffffffffffffffffff161415611967576040517f08c379a000000000000000000000000000000000000000000000000000000000815260040161195e90613837565b60405180910390fd5b61197081611efe565b50565b600033905090565b60007f80ac58cd000000000000000000000000000000000000000000000000000000007bffffffffffffffffffffffffffffffffffffffffffffffffffffffff1916827bffffffffffffffffffffffffffffffffffffffffffffffffffffffff19161480611a4657507f5b5e139f000000000000000000000000000000000000000000000000000000007bffffffffffffffffffffffffffffffffffffffffffffffffffffffff1916827bffffffffffffffffffffffffffffffffffffffffffffffffffffffff1916145b80611a565750611a55826121cb565b5b9050919050565b60008073ffffffffffffffffffffffffffffffffffffffff166003600084815260200190815260200160002060009054906101000a900473ffffffffffffffffffffffffffffffffffffffff1673ffffffffffffffffffffffffffffffffffffffff1614159050919050565b816005600083815260200190815260200160002060006101000a81548173ffffffffffffffffffffffffffffffffffffffff021916908373ffffffffffffffffffffffffffffffffffffffff160217905550808273ffffffffffffffffffffffffffffffffffffffff16611b3c83610d5a565b73ffffffffffffffffffffffffffffffffffffffff167f8c5be1e5ebec7d5bd14f71427d1e84f3dd0314c0f7b2291e5b200ac8c7c3b92560405160405180910390a45050565b6000611b8d82611a5d565b611bcc576040517f08c379a0000000000000000000000000000000000000000000000000000000008152600401611bc390613917565b60405180910390fd5b6000611bd783610d5a565b90508073ffffffffffffffffffffffffffffffffffffffff168473ffffffffffffffffffffffffffffffffffffffff161480611c4657508373ffffffffffffffffffffffffffffffffffffffff16611c2e846107eb565b73ffffffffffffffffffffffffffffffffffffffff16145b80611c575750611c5681856117e7565b5b91505092915050565b8273ffffffffffffffffffffffffffffffffffffffff16611c8082610d5a565b73ffffffffffffffffffffffffffffffffffffffff1614611cd6576040517f08c379a0000000000000000000000000000000000000000000000000000000008152600401611ccd90613a57565b60405180910390fd5b600073ffffffffffffffffffffffffffffffffffffffff168273ffffffffffffffffffffffffffffffffffffffff161415611d46576040517f08c379a0000000000000000000000000000000000000000000000000000000008152600401611d3d90613897565b60405180910390fd5b611d51838383612235565b611d5c600082611ac9565b6001600460008573ffffffffffffffffffffffffffffffffffffffff1673ffffffffffffffffffffffffffffffffffffffff1681526020019081526020016000206000828254611dac9190613cec565b925050819055506001600460008473ffffffffffffffffffffffffffffffffffffffff1673ffffffffffffffffffffffffffffffffffffffff1681526020019081526020016000206000828254611e039190613c0b565b92505081905550816003600083815260200190815260200160002060006101000a81548173ffffffffffffffffffffffffffffffffffffffff021916908373ffffffffffffffffffffffffffffffffffffffff160217905550808273ffffffffffffffffffffffffffffffffffffffff168473ffffffffffffffffffffffffffffffffffffffff167fddf252ad1be2c89b69c2b068fc378daa952ba7f163c4a11628f55a4df523b3ef60405160405180910390a4505050565b600081600001549050919050565b611ee482826040518060200160405280600081525061223a565b5050565b6001816000016000828254019250508190555050565b60008060009054906101000a900473ffffffffffffffffffffffffffffffffffffffff169050816000806101000a81548173ffffffffffffffffffffffffffffffffffffffff021916908373ffffffffffffffffffffffffffffffffffffffff1602179055508173ffffffffffffffffffffffffffffffffffffffff168173ffffffffffffffffffffffffffffffffffffffff167f8be0079c531659141344cd1fd0a4f28419497f9722a3daafe3b4186f6b6457e060405160405180910390a35050565b611fcd848484611c60565b611fd984848484612295565b612018576040517f08c379a000000000000000000000000000000000000000000000000000000000815260040161200f90613817565b60405180910390fd5b50505050565b60606000821415612066576040518060400160405280600181526020017f300000000000000000000000000000000000000000000000000000000000000081525090506121c6565b600082905060005b6000821461209857808061208190613e5e565b915050600a826120919190613c61565b915061206e565b60008167ffffffffffffffff8111156120da577f4e487b7100000000000000000000000000000000000000000000000000000000600052604160045260246000fd5b6040519080825280601f01601f19166020018201604052801561210c5781602001600182028036833780820191505090505b5090505b600085146121bf576001826121259190613cec565b9150600a856121349190613ea7565b60306121409190613c0b565b60f81b81838151811061217c577f4e487b7100000000000000000000000000000000000000000000000000000000600052603260045260246000fd5b60200101907effffffffffffffffffffffffffffffffffffffffffffffffffffffffffffff1916908160001a905350600a856121b89190613c61565b9450612110565b8093505050505b919050565b60007f01ffc9a7000000000000000000000000000000000000000000000000000000007bffffffffffffffffffffffffffffffffffffffffffffffffffffffff1916827bffffffffffffffffffffffffffffffffffffffffffffffffffffffff1916149050919050565b505050565b612244838361242c565b6122516000848484612295565b612290576040517f08c379a000000000000000000000000000000000000000000000000000000000815260040161228790613817565b60405180910390fd5b505050565b60006122b68473ffffffffffffffffffffffffffffffffffffffff166125fa565b1561241f578373ffffffffffffffffffffffffffffffffffffffff1663150b7a026122df611973565b8786866040518563ffffffff1660e01b81526004016123019493929190613745565b602060405180830381600087803b15801561231b57600080fd5b505af192505050801561234c57506040513d601f19601f8201168201806040525081019061234991906129ee565b60015b6123cf573d806000811461237c576040519150601f19603f3d011682016040523d82523d6000602084013e612381565b606091505b506000815114156123c7576040517f08c379a00000000000000000000000000000000000000000000000000000000081526004016123be90613817565b60405180910390fd5b805181602001fd5b63150b7a0260e01b7bffffffffffffffffffffffffffffffffffffffffffffffffffffffff1916817bffffffffffffffffffffffffffffffffffffffffffffffffffffffff191614915050612424565b600190505b949350505050565b600073ffffffffffffffffffffffffffffffffffffffff168273ffffffffffffffffffffffffffffffffffffffff16141561249c576040517f08c379a0000000000000000000000000000000000000000000000000000000008152600401612493906139d7565b60405180910390fd5b6124a581611a5d565b156124e5576040517f08c379a00000000000000000000000000000000000000000000000000000000081526004016124dc90613857565b60405180910390fd5b6124f160008383612235565b6001600460008473ffffffffffffffffffffffffffffffffffffffff1673ffffffffffffffffffffffffffffffffffffffff16815260200190815260200160002060008282546125419190613c0b565b92505081905550816003600083815260200190815260200160002060006101000a81548173ffffffffffffffffffffffffffffffffffffffff021916908373ffffffffffffffffffffffffffffffffffffffff160217905550808273ffffffffffffffffffffffffffffffffffffffff16600073ffffffffffffffffffffffffffffffffffffffff167fddf252ad1be2c89b69c2b068fc378daa952ba7f163c4a11628f55a4df523b3ef60405160405180910390a45050565b600080823b905060008111915050919050565b82805461261990613e2c565b90600052602060002090601f01602090048101928261263b5760008555612682565b82601f1061265457803560ff1916838001178555612682565b82800160010185558215612682579182015b82811115612681578235825591602001919060010190612666565b5b50905061268f9190612693565b5090565b5b808211156126ac576000816000905550600101612694565b5090565b60006126c36126be84613b83565b613b52565b9050828152602081018484840111156126db57600080fd5b6126e6848285613dea565b509392505050565b6000813590506126fd81613fa5565b92915050565b60008135905061271281613fbc565b92915050565b60008135905061272781613fd3565b92915050565b60008135905061273c81613fea565b92915050565b60008151905061275181613fea565b92915050565b600082601f83011261276857600080fd5b81356127788482602086016126b0565b91505092915050565b60008083601f84011261279357600080fd5b8235905067ffffffffffffffff8111156127ac57600080fd5b6020830191508360018202830111156127c457600080fd5b9250929050565b6000813590506127da81614001565b92915050565b6000813590506127ef81614018565b92915050565b60006020828403121561280757600080fd5b6000612815848285016126ee565b91505092915050565b60006020828403121561283057600080fd5b600061283e84828501612703565b91505092915050565b6000806040838503121561285a57600080fd5b6000612868858286016126ee565b9250506020612879858286016126ee565b9150509250929050565b60008060006060848603121561289857600080fd5b60006128a6868287016126ee565b93505060206128b7868287016126ee565b92505060406128c8868287016127e0565b9150509250925092565b600080600080608085870312156128e857600080fd5b60006128f6878288016126ee565b9450506020612907878288016126ee565b9350506040612918878288016127e0565b925050606085013567ffffffffffffffff81111561293557600080fd5b61294187828801612757565b91505092959194509250565b6000806040838503121561296057600080fd5b600061296e858286016126ee565b925050602061297f85828601612718565b9150509250929050565b6000806040838503121561299c57600080fd5b60006129aa858286016126ee565b92505060206129bb858286016127e0565b9150509250929050565b6000602082840312156129d757600080fd5b60006129e58482850161272d565b91505092915050565b600060208284031215612a0057600080fd5b6000612a0e84828501612742565b91505092915050565b60008060208385031215612a2a57600080fd5b600083013567ffffffffffffffff811115612a4457600080fd5b612a5085828601612781565b92509250509250929050565b600060208284031215612a6e57600080fd5b6000612a7c848285016127cb565b91505092915050565b600060208284031215612a9757600080fd5b6000612aa5848285016127e0565b91505092915050565b60008060408385031215612ac157600080fd5b6000612acf858286016127e0565b9250506020612ae0858286016127e0565b9150509250929050565b612af381613db4565b82525050565b612b0281613d20565b82525050565b612b1181613d44565b82525050565b6000612b2282613bc8565b612b2c8185613bde565b9350612b3c818560208601613df9565b612b4581613f94565b840191505092915050565b6000612b5b82613bd3565b612b658185613bef565b9350612b75818560208601613df9565b612b7e81613f94565b840191505092915050565b6000612b9482613bd3565b612b9e8185613c00565b9350612bae818560208601613df9565b80840191505092915050565b60008154612bc781613e2c565b612bd18186613c00565b94506001821660008114612bec5760018114612bfd57612c30565b60ff19831686528186019350612c30565b612c0685613bb3565b60005b83811015612c2857815481890152600182019150602081019050612c09565b838801955050505b50505092915050565b6000612c46602a83613bef565b91507f43616e206e6f742073656e6420726f79616c7469657320746f20746865207a6560008301527f726f2061646472657373000000000000000000000000000000000000000000006020830152604082019050919050565b6000612cac603283613bef565b91507f4552433732313a207472616e7366657220746f206e6f6e20455243373231526560008301527f63656976657220696d706c656d656e74657200000000000000000000000000006020830152604082019050919050565b6000612d12602683613bef565b91507f4f776e61626c653a206e6577206f776e657220697320746865207a65726f206160008301527f64647265737300000000000000000000000000000000000000000000000000006020830152604082019050919050565b6000612d78601c83613bef565b91507f4552433732313a20746f6b656e20616c7265616479206d696e746564000000006000830152602082019050919050565b6000612db8603483613bef565b91507f526f79616c74792063616e206f6e6c79206265206265747765656e20302d323060008301527f2070657263656e74206f66207468652073616c650000000000000000000000006020830152604082019050919050565b6000612e1e602483613bef565b91507f4552433732313a207472616e7366657220746f20746865207a65726f2061646460008301527f72657373000000000000000000000000000000000000000000000000000000006020830152604082019050919050565b6000612e84601983613bef565b91507f4552433732313a20617070726f766520746f2063616c6c6572000000000000006000830152602082019050919050565b6000612ec4601e83613bef565b91507f5465616d204d696e742048617320616c72656164792068617070656e656400006000830152602082019050919050565b6000612f04601f83613bef565b91507f45746865722076616c75652073656e74206973206e6f7420636f7272656374006000830152602082019050919050565b6000612f44602c83613bef565b91507f4552433732313a206f70657261746f7220717565727920666f72206e6f6e657860008301527f697374656e7420746f6b656e00000000000000000000000000000000000000006020830152604082019050919050565b6000612faa600783613c00565b91507f697066733a2f2f000000000000000000000000000000000000000000000000006000830152600782019050919050565b6000612fea603883613bef565b91507f4552433732313a20617070726f76652063616c6c6572206973206e6f74206f7760008301527f6e6572206e6f7220617070726f76656420666f7220616c6c00000000000000006020830152604082019050919050565b6000613050602a83613bef565b91507f4552433732313a2062616c616e636520717565727920666f7220746865207a6560008301527f726f2061646472657373000000000000000000000000000000000000000000006020830152604082019050919050565b60006130b6602983613bef565b91507f4552433732313a206f776e657220717565727920666f72206e6f6e657869737460008301527f656e7420746f6b656e00000000000000000000000000000000000000000000006020830152604082019050919050565b600061311c601b83613bef565b91507f4d696e74696e6720686173206e6f7420796574207374617274656400000000006000830152602082019050919050565b600061315c602a83613bef565b91507f43616e206e6f74206d696e74206d6f7265207468616e20323020746f6b656e7360008301527f20617420612074696d65000000000000000000000000000000000000000000006020830152604082019050919050565b60006131c2602083613bef565b91507f4552433732313a206d696e7420746f20746865207a65726f20616464726573736000830152602082019050919050565b6000613202602c83613bef565b91507f4552433732313a20617070726f76656420717565727920666f72206e6f6e657860008301527f697374656e7420746f6b656e00000000000000000000000000000000000000006020830152604082019050919050565b6000613268600583613c00565b91507f2e6a736f6e0000000000000000000000000000000000000000000000000000006000830152600582019050919050565b60006132a8602083613bef565b91507f4f776e61626c653a2063616c6c6572206973206e6f7420746865206f776e65726000830152602082019050919050565b60006132e8602583613bef565b91507f547261646974696f6e657261746976654172743a20416c7265616479204c617560008301527f6e636865640000000000000000000000000000000000000000000000000000006020830152604082019050919050565b600061334e602983613bef565b91507f4552433732313a207472616e73666572206f6620746f6b656e2074686174206960008301527f73206e6f74206f776e00000000000000000000000000000000000000000000006020830152604082019050919050565b60006133b4602883613bef565b91507f50757263686163652077696c6c206578656564206d617820737570706c79206f60008301527f6620746f6b656e730000000000000000000000000000000000000000000000006020830152604082019050919050565b600061341a602f83613bef565b91507f4552433732314d657461646174613a2055524920717565727920666f72206e6f60008301527f6e6578697374656e7420746f6b656e00000000000000000000000000000000006020830152604082019050919050565b6000613480602183613bef565b91507f4552433732313a20617070726f76616c20746f2063757272656e74206f776e6560008301527f72000000000000000000000000000000000000000000000000000000000000006020830152604082019050919050565b60006134e6600a83613c00565b91507f68747470733a2f2f2020000000000000000000000000000000000000000000006000830152600a82019050919050565b6000613526603183613bef565b91507f4552433732313a207472616e736665722063616c6c6572206973206e6f74206f60008301527f776e6572206e6f7220617070726f7665640000000000000000000000000000006020830152604082019050919050565b600061358c602183613bef565b91507f596f75206861766520746f206d696e74206174206c65617374203120746f6b6560008301527f6e000000000000000000000000000000000000000000000000000000000000006020830152604082019050919050565b60006135f2603a83613bef565b91507f45524332393831526f79616c74795374616e646172643a20526f79616c74792060008301527f696e666f20666f72206e6f6e6578697374656e7420746f6b656e0000000000006020830152604082019050919050565b6000613658600183613c00565b91507f2f000000000000000000000000000000000000000000000000000000000000006000830152600182019050919050565b61369481613daa565b82525050565b60006136a582612f9d565b91506136b18285612bba565b91506136bc8261364b565b91506136c88284612b89565b91506136d38261325b565b91508190509392505050565b60006136ea826134d9565b91506136f68284612b89565b915081905092915050565b60006020820190506137166000830184612af9565b92915050565b60006040820190506137316000830185612aea565b61373e602083018461368b565b9392505050565b600060808201905061375a6000830187612af9565b6137676020830186612af9565b613774604083018561368b565b81810360608301526137868184612b17565b905095945050505050565b60006040820190506137a66000830185612af9565b6137b3602083018461368b565b9392505050565b60006020820190506137cf6000830184612b08565b92915050565b600060208201905081810360008301526137ef8184612b50565b905092915050565b6000602082019050818103600083015261381081612c39565b9050919050565b6000602082019050818103600083015261383081612c9f565b9050919050565b6000602082019050818103600083015261385081612d05565b9050919050565b6000602082019050818103600083015261387081612d6b565b9050919050565b6000602082019050818103600083015261389081612dab565b9050919050565b600060208201905081810360008301526138b081612e11565b9050919050565b600060208201905081810360008301526138d081612e77565b9050919050565b600060208201905081810360008301526138f081612eb7565b9050919050565b6000602082019050818103600083015261391081612ef7565b9050919050565b6000602082019050818103600083015261393081612f37565b9050919050565b6000602082019050818103600083015261395081612fdd565b9050919050565b6000602082019050818103600083015261397081613043565b9050919050565b60006020820190508181036000830152613990816130a9565b9050919050565b600060208201905081810360008301526139b08161310f565b9050919050565b600060208201905081810360008301526139d08161314f565b9050919050565b600060208201905081810360008301526139f0816131b5565b9050919050565b60006020820190508181036000830152613a10816131f5565b9050919050565b60006020820190508181036000830152613a308161329b565b9050919050565b60006020820190508181036000830152613a50816132db565b9050919050565b60006020820190508181036000830152613a7081613341565b9050919050565b60006020820190508181036000830152613a90816133a7565b9050919050565b60006020820190508181036000830152613ab08161340d565b9050919050565b60006020820190508181036000830152613ad081613473565b9050919050565b60006020820190508181036000830152613af081613519565b9050919050565b60006020820190508181036000830152613b108161357f565b9050919050565b60006020820190508181036000830152613b30816135e5565b9050919050565b6000602082019050613b4c600083018461368b565b92915050565b6000604051905081810181811067ffffffffffffffff82111715613b7957613b78613f65565b5b8060405250919050565b600067ffffffffffffffff821115613b9e57613b9d613f65565b5b601f19601f8301169050602081019050919050565b60008190508160005260206000209050919050565b600081519050919050565b600081519050919050565b600082825260208201905092915050565b600082825260208201905092915050565b600081905092915050565b6000613c1682613daa565b9150613c2183613daa565b9250827fffffffffffffffffffffffffffffffffffffffffffffffffffffffffffffffff03821115613c5657613c55613ed8565b5b828201905092915050565b6000613c6c82613daa565b9150613c7783613daa565b925082613c8757613c86613f07565b5b828204905092915050565b6000613c9d82613daa565b9150613ca883613daa565b9250817fffffffffffffffffffffffffffffffffffffffffffffffffffffffffffffffff0483118215151615613ce157613ce0613ed8565b5b828202905092915050565b6000613cf782613daa565b9150613d0283613daa565b925082821015613d1557613d14613ed8565b5b828203905092915050565b6000613d2b82613d8a565b9050919050565b6000613d3d82613d8a565b9050919050565b60008115159050919050565b60007fffffffff0000000000000000000000000000000000000000000000000000000082169050919050565b600061ffff82169050919050565b600073ffffffffffffffffffffffffffffffffffffffff82169050919050565b6000819050919050565b6000613dbf82613dc6565b9050919050565b6000613dd182613dd8565b9050919050565b6000613de382613d8a565b9050919050565b82818337600083830152505050565b60005b83811015613e17578082015181840152602081019050613dfc565b83811115613e26576000848401525b50505050565b60006002820490506001821680613e4457607f821691505b60208210811415613e5857613e57613f36565b5b50919050565b6000613e6982613daa565b91507fffffffffffffffffffffffffffffffffffffffffffffffffffffffffffffffff821415613e9c57613e9b613ed8565b5b600182019050919050565b6000613eb282613daa565b9150613ebd83613daa565b925082613ecd57613ecc613f07565b5b828206905092915050565b7f4e487b7100000000000000000000000000000000000000000000000000000000600052601160045260246000fd5b7f4e487b7100000000000000000000000000000000000000000000000000000000600052601260045260246000fd5b7f4e487b7100000000000000000000000000000000000000000000000000000000600052602260045260246000fd5b7f4e487b7100000000000000000000000000000000000000000000000000000000600052604160045260246000fd5b6000601f19601f8301169050919050565b613fae81613d20565b8114613fb957600080fd5b50565b613fc581613d32565b8114613fd057600080fd5b50565b613fdc81613d44565b8114613fe757600080fd5b50565b613ff381613d50565b8114613ffe57600080fd5b50565b61400a81613d7c565b811461401557600080fd5b50565b61402181613daa565b811461402c57600080fd5b5056fea2646970667358221220939cce9622be2be95046b57b15940e5adf0552b9815ac06fd30cb2a1f5e5d70964736f6c63430008000033",
  "immutableReferences": {},
  "source": "// SPDX-License-Identifier: MIT\r\npragma solidity ^0.8.0;\r\n\r\nimport \"./Ownable.sol\";\r\nimport \"./Counters.sol\";\r\nimport \"./IERC2981.sol\";\r\nimport \"./ERC721.sol\";\r\n\r\n/**\r\n * @author Roi Di Segni (aka @sheeeev66)\r\n */\r\n\r\ncontract Contract is Ownable, ERC721, IERC2981 {\r\n\r\n    // Public address of the royalty receiver:\r\n    address private royaltyReceiver;\r\n    // Royalty Percentage:\r\n    uint16 private royaltyPercentage;\r\n\r\n    // Launch (when true its launched)\r\n    bool private launched;\r\n    // check if the team minted or not\r\n    bool private teamMintAvalible = true;\r\n\r\n    // base URI\r\n    string private baseURIcid;\r\n\r\n    using Counters for Counters.Counter;\r\n    using Strings for uint256;\r\n\r\n    event NewNameMinted(uint id);\r\n    event Withdrawn(address _address, uint amount);\r\n    \r\n    // track token ID\r\n    Counters.Counter private _tokenId;\r\n\r\n    // To enforce the pre mint phase\r\n    mapping(address => bool) preMintParticipant;\r\n\r\n\r\n    constructor(string memory name_, string memory symbol_) ERC721(name_, symbol_) { }\r\n\r\n\r\n    function supportsInterface(bytes4 interfaceId) public view override(ERC721, IERC165) returns (bool) {\r\n        return\r\n            interfaceId == type(IERC2981).interfaceId ||\r\n            super.supportsInterface(interfaceId);\r\n    }\r\n\r\n\r\n    /**\r\n     * @dev withdraw contract balance to a wallet\r\n     * @notice won't execute if it isn't the owner who is executing the command\r\n     * @param _address the address to withdraw to\r\n     */\r\n    function withdraw(address payable _address) public onlyOwner {\r\n        emit Withdrawn(_address, address(this).balance);\r\n        _address.transfer(address(this).balance);\r\n    }\r\n    \r\n    /**\r\n     * @dev Launch the project\r\n     */\r\n    function launch() public onlyOwner {\r\n        require(launched == false, \"TraditionerativeArt: Already Launched\");\r\n        launched = true;\r\n    }\r\n\r\n    /**\r\n     * @dev this function should be called after *all the art is generated* and uploaded to IPFS.\r\n     * @notice calling this function enables minting!! So don't call it unless you are sure.\r\n     * @notice RECOMMENDED NOT TO CALL THIS FUNCTION UNTILL ALL THE ART IS UPLOADED TO IPFS!!\r\n     */\r\n    function setBaseURIcid(string calldata cid) public onlyOwner {\r\n        baseURIcid = cid;\r\n    }\r\n\r\n    /**\r\n     * @dev Overriding this to return ipfs URI with a set CID.\r\n     * @notice If no IPFS CID is set yet, it will return a domain to where the metadata is stored with a path to it.\r\n     * \r\n     */\r\n    function tokenURI(uint256 tokenId) public view override returns (string memory) {\r\n        require(_exists(tokenId), \"ERC721Metadata: URI query for nonexistent token\");\r\n\r\n        return bytes(baseURIcid).length > 0 ? \r\n        string(abi.encodePacked(\"ipfs://\", baseURIcid, \"/\", tokenId.toString(), \".json\")) : \r\n        string(abi.encodePacked(\"https://  \", tokenId.toString()));\r\n    }\r\n\r\n    /**\r\n     * @dev premint for team\r\n     * @dev 20 will be minted for the team\r\n     * @notice the NFTs will be minted and sent to the callers address\r\n     * @notice only the owner of the contract can call this function\r\n     * @notice enables pre minting\r\n     */\r\n    function teamMintName() public onlyOwner {\r\n        // require(bytes(baseURIcid).length > 0, \"No IPFS CID set. Minting will be enabled once setBaseURIcid(cid) will be called\");\r\n        require(teamMintAvalible, \"Team Mint Has already happened\");\r\n        for (uint i=0; i < 20; i++) {\r\n            _safeMint(msg.sender, _tokenId.current());\r\n\r\n            emit NewNameMinted(_tokenId.current());\r\n            _tokenId.increment();\r\n        }\r\n        teamMintAvalible = false;\r\n    }\r\n\r\n    /**\r\n     * @dev pre minting the token (the number of pre mint participants will be minted)\r\n     * @dev For people who want to participate but aren't capable to particpate because of gas wars\r\n     * @notice enabled once teamMint() is called\r\n     * @notice only eligable people can pre minutes\r\n     * @notice pre minting can only \r\n     */\r\n    function preMintName() public /* payable */ { \r\n        // require(teamMintAvalible == false, \"Pre minting isn't yet avalible\");\r\n        // require(launched == false, \"Pre mint phase is over. Please use safeMintTga(tokenCount))\");\r\n        // require(preMintParticipant[msg.sender], \"Address not eligable for a pre mint\");\r\n        // require(msg.value >= 10000000000000000, \"Ether value sent is not correct\"); // price for 1: 0.01 eth\r\n\r\n        _safeMint(msg.sender, _tokenId.current());\r\n\r\n        emit NewNameMinted(_tokenId.current());\r\n        _tokenId.increment();\r\n        \r\n        preMintParticipant[msg.sender] = false;\r\n    }\r\n\r\n    /**\r\n     * @dev miniting the token\r\n     * @dev makes sure that no more than 10K tokens are minted\r\n     * @dev makes sure that at least 0.05 ether is paid before minting\r\n     * @dev makes sure that no more than 20 tokens are minted at once\r\n     * @param _tokenCount the ammount of tokens to mint\r\n     */\r\n    function mintName(uint _tokenCount) public payable {\r\n        require(launched, \"Minting has not yet started\");\r\n        require(_tokenCount <= 20, \"Can not mint more than 20 tokens at a time\");\r\n        require(_tokenCount != 0, \"You have to mint at least 1 token\");\r\n        require(_tokenId.current() + _tokenCount <= 9899, \"Purchace will exeed max supply of tokens\");\r\n        require(msg.value >= 10000000000000000*_tokenCount, \"Ether value sent is not correct\"); // price for 1: 0.01 eth\r\n\r\n        for (uint i=0; i < _tokenCount; i++) {\r\n            _safeMint(msg.sender, _tokenId.current());\r\n\r\n            emit NewNameMinted(_tokenId.current());\r\n            _tokenId.increment();\r\n        }\r\n    }\r\n\r\n    /**\r\n     * @dev Royalty info for the exchange to read (using EIP-2981 royalty standard)\r\n     * @param tokenId the token Id \r\n     * @param salePrice the price the NFT was sold for\r\n     * @dev returns: send a percent of the sale price to the royalty recievers address\r\n     * @notice this function is to be called by exchanges to get the royalty information\r\n     */\r\n    function royaltyInfo(uint256 tokenId, uint256 salePrice) external view override returns (address receiver, uint256 royaltyAmount) {\r\n        require(_exists(tokenId), \"ERC2981RoyaltyStandard: Royalty info for nonexistent token\");\r\n        return (royaltyReceiver, (salePrice * royaltyPercentage) / 10000);\r\n    }\r\n    \r\n    /**\r\n     * @dev Sets the royalty recieving address to:\r\n     * @param _address the address the royalties are sent to\r\n     * @notice Setting the recieving address to the zero address will result in an error\r\n     */\r\n    function setRoyaltyRecieverTo(address _address) public onlyOwner {\r\n        require(_address != address(0), \"Can not send royalties to the zero address\");\r\n        royaltyReceiver = _address;\r\n    }\r\n\r\n    /**\r\n     * @dev Sets the royalty percentage to:\r\n     * @param _percent the percentage in basis points.\r\n     * @notice When entering royalty, make sure you are using basis points (points per 10000).\r\n     * @dev Usage example:\r\n     * setRoyaltyAmountTo(500); // this will set 5 percent. Think of it as 5.00 but without the decimal point.\r\n     * @dev This is to handle the decimals in solidity. Because solidity doesn't support floats.\r\n     */\r\n    function setRoyaltyAmountTo(uint16 _percent) public onlyOwner {\r\n        require(_percent >= 0 && _percent <= 20000, \"Royalty can only be between 0-20 percent of the sale\");\r\n        royaltyPercentage = _percent;\r\n    }\r\n    \r\n    /**\r\n     * @dev get if the caller owns an NFT\r\n     */\r\n    function isTokenHolder() external view returns(bool) {\r\n        return balanceOf(msg.sender) > 0;\r\n    }\r\n\r\n}",
  "sourcePath": "D:\\NFTproject\\contracts\\Contract.sol",
  "compiler": {
    "name": "solc",
    "version": "0.8.0+commit.c7dfd78e.Emscripten.clang"
  },
  "schemaVersion": "3.4.3",
  "updatedAt": "2021-09-28T09:11:24.170Z",
  "devdoc": {
    "author": "Roi Di Segni (aka @sheeeev66)",
    "kind": "dev",
    "methods": {
      "approve(address,uint256)": {
        "details": "See {IERC721-approve}."
      },
      "balanceOf(address)": {
        "details": "See {IERC721-balanceOf}."
      },
      "getApproved(uint256)": {
        "details": "See {IERC721-getApproved}."
      },
      "isApprovedForAll(address,address)": {
        "details": "See {IERC721-isApprovedForAll}."
      },
      "isTokenHolder()": {
        "details": "get if the caller owns an NFT"
      },
      "launch()": {
        "details": "Launch the project"
      },
      "mintName(uint256)": {
        "details": "miniting the tokenmakes sure that no more than 10K tokens are mintedmakes sure that at least 0.05 ether is paid before mintingmakes sure that no more than 20 tokens are minted at once",
        "params": {
          "_tokenCount": "the ammount of tokens to mint"
        }
      },
      "name()": {
        "details": "See {IERC721Metadata-name}."
      },
      "owner()": {
        "details": "Returns the address of the current owner."
      },
      "ownerOf(uint256)": {
        "details": "See {IERC721-ownerOf}."
      },
      "preMintName()": {
        "details": "pre minting the token (the number of pre mint participants will be minted)For people who want to participate but aren't capable to particpate because of gas wars"
      },
      "renounceOwnership()": {
        "details": "Leaves the contract without owner. It will not be possible to call `onlyOwner` functions anymore. Can only be called by the current owner. NOTE: Renouncing ownership will leave the contract without an owner, thereby removing any functionality that is only available to the owner."
      },
      "royaltyInfo(uint256,uint256)": {
        "details": "Royalty info for the exchange to read (using EIP-2981 royalty standard)returns: send a percent of the sale price to the royalty recievers address",
        "params": {
          "salePrice": "the price the NFT was sold for",
          "tokenId": "the token Id "
        }
      },
      "safeTransferFrom(address,address,uint256)": {
        "details": "See {IERC721-safeTransferFrom}."
      },
      "safeTransferFrom(address,address,uint256,bytes)": {
        "details": "See {IERC721-safeTransferFrom}."
      },
      "setApprovalForAll(address,bool)": {
        "details": "See {IERC721-setApprovalForAll}."
      },
      "setBaseURIcid(string)": {
        "details": "this function should be called after *all the art is generated* and uploaded to IPFS."
      },
      "setRoyaltyAmountTo(uint16)": {
        "details": "Sets the royalty percentage to:Usage example: setRoyaltyAmountTo(500); // this will set 5 percent. Think of it as 5.00 but without the decimal point.This is to handle the decimals in solidity. Because solidity doesn't support floats.",
        "params": {
          "_percent": "the percentage in basis points."
        }
      },
      "setRoyaltyRecieverTo(address)": {
        "details": "Sets the royalty recieving address to:",
        "params": {
          "_address": "the address the royalties are sent to"
        }
      },
      "symbol()": {
        "details": "See {IERC721Metadata-symbol}."
      },
      "teamMintName()": {
        "details": "premint for team20 will be minted for the team"
      },
      "tokenURI(uint256)": {
        "details": "Overriding this to return ipfs URI with a set CID."
      },
      "transferFrom(address,address,uint256)": {
        "details": "See {IERC721-transferFrom}."
      },
      "transferOwnership(address)": {
        "details": "Transfers ownership of the contract to a new account (`newOwner`). Can only be called by the current owner."
      },
      "withdraw(address)": {
        "details": "withdraw contract balance to a wallet",
        "params": {
          "_address": "the address to withdraw to"
        }
      }
    },
    "version": 1
  },
  "userdoc": {
    "kind": "user",
    "methods": {
      "preMintName()": {
        "notice": "enabled once teamMint() is calledonly eligable people can pre minutespre minting can only "
      },
      "royaltyInfo(uint256,uint256)": {
        "notice": "this function is to be called by exchanges to get the royalty information"
      },
      "setBaseURIcid(string)": {
        "notice": "calling this function enables minting!! So don't call it unless you are sure.RECOMMENDED NOT TO CALL THIS FUNCTION UNTILL ALL THE ART IS UPLOADED TO IPFS!!"
      },
      "setRoyaltyAmountTo(uint16)": {
        "notice": "When entering royalty, make sure you are using basis points (points per 10000)."
      },
      "setRoyaltyRecieverTo(address)": {
        "notice": "Setting the recieving address to the zero address will result in an error"
      },
      "teamMintName()": {
        "notice": "the NFTs will be minted and sent to the callers addressonly the owner of the contract can call this functionenables pre minting"
      },
      "tokenURI(uint256)": {
        "notice": "If no IPFS CID is set yet, it will return a domain to where the metadata is stored with a path to it. "
      },
      "withdraw(address)": {
        "notice": "won't execute if it isn't the owner who is executing the command"
      }
    },
    "version": 1
  }
}